{"contractName":"AutoFeed","abi":[{"inputs":[],"stateMutability":"nonpayable","type":"constructor"},{"anonymous":false,"inputs":[{"indexed":true,"internalType":"uint256","name":"id","type":"uint256"},{"indexed":true,"internalType":"uint256","name":"times","type":"uint256"}],"name":"History","type":"event"},{"anonymous":false,"inputs":[{"indexed":true,"internalType":"address","name":"previousOwner","type":"address"},{"indexed":true,"internalType":"address","name":"newOwner","type":"address"}],"name":"OwnershipTransferred","type":"event"},{"anonymous":false,"inputs":[{"indexed":false,"internalType":"address","name":"account","type":"address"}],"name":"Paused","type":"event"},{"anonymous":false,"inputs":[{"indexed":false,"internalType":"address","name":"account","type":"address"}],"name":"Unpaused","type":"event"},{"inputs":[],"name":"owner","outputs":[{"internalType":"address","name":"","type":"address"}],"stateMutability":"view","type":"function","constant":true},{"inputs":[],"name":"paused","outputs":[{"internalType":"bool","name":"","type":"bool"}],"stateMutability":"view","type":"function","constant":true},{"inputs":[],"name":"renounceOwnership","outputs":[],"stateMutability":"nonpayable","type":"function"},{"inputs":[{"internalType":"address","name":"newOwner","type":"address"}],"name":"transferOwnership","outputs":[],"stateMutability":"nonpayable","type":"function"},{"inputs":[],"name":"pause","outputs":[],"stateMutability":"nonpayable","type":"function"},{"inputs":[],"name":"unpause","outputs":[],"stateMutability":"nonpayable","type":"function"},{"inputs":[],"name":"input","outputs":[],"stateMutability":"nonpayable","type":"function"},{"inputs":[],"name":"currentIds","outputs":[{"internalType":"uint256","name":"","type":"uint256"}],"stateMutability":"view","type":"function","constant":true},{"inputs":[{"internalType":"uint256","name":"from","type":"uint256"},{"internalType":"uint256","name":"to","type":"uint256"}],"name":"showHistory","outputs":[{"internalType":"uint256[]","name":"","type":"uint256[]"},{"internalType":"uint256[]","name":"","type":"uint256[]"}],"stateMutability":"view","type":"function","constant":true}],"bytecode":"0x608060405234801561001057600080fd5b5061002d61002261006060201b60201c565b61006860201b60201c565b60008060146101000a81548160ff02191690831515021790555061005b600161012c60201b6107b61760201c565b610142565b600033905090565b60008060009054906101000a900473ffffffffffffffffffffffffffffffffffffffff169050816000806101000a81548173ffffffffffffffffffffffffffffffffffffffff021916908373ffffffffffffffffffffffffffffffffffffffff1602179055508173ffffffffffffffffffffffffffffffffffffffff168173ffffffffffffffffffffffffffffffffffffffff167f8be0079c531659141344cd1fd0a4f28419497f9722a3daafe3b4186f6b6457e060405160405180910390a35050565b6001816000016000828254019250508190555050565b61102c806101516000396000f3fe608060405234801561001057600080fd5b50600436106100935760003560e01c80638456cb59116100665780638456cb59146100fb5780638da5cb5b14610105578063e0a0f4fb14610123578063eaed3f4f14610141578063f2fde38b1461014b57610093565b80633f4ba83a146100985780635c975abb146100a25780636d17ba9c146100c0578063715018a6146100f1575b600080fd5b6100a0610167565b005b6100aa610234565b6040516100b79190610a05565b60405180910390f35b6100da60048036038101906100d59190610a5b565b61024a565b6040516100e8929190610b59565b60405180910390f35b6100f9610403565b005b61010361048b565b005b61010d610559565b60405161011a9190610bd1565b60405180910390f35b61012b610582565b6040516101389190610bfb565b60405180910390f35b610149610593565b005b61016560048036038101906101609190610c42565b6106be565b005b61016f6107cc565b73ffffffffffffffffffffffffffffffffffffffff1661018d610559565b73ffffffffffffffffffffffffffffffffffffffff16146101e3576040517f08c379a00000000000000000000000000000000000000000000000000000000081526004016101da90610ccc565b60405180910390fd5b6101eb610234565b61022a576040517f08c379a000000000000000000000000000000000000000000000000000000000815260040161022190610d38565b60405180910390fd5b6102326107d4565b565b60008060149054906101000a900460ff16905090565b60608060008411801561025d5750600083115b61029c576040517f08c379a000000000000000000000000000000000000000000000000000000000815260040161029390610da4565b60405180910390fd5b60008385116102ab57836102ad565b845b905060008486116102c95785856102c49190610df3565b6102d6565b84866102d59190610df3565b5b905060008167ffffffffffffffff8111156102f4576102f3610e27565b5b6040519080825280602002602001820160405280156103225781602001602082028036833780820191505090505b50905060008267ffffffffffffffff81111561034157610340610e27565b5b60405190808252806020026020018201604052801561036f5781602001602082028036833780820191505090505b50905060005b838110156103f1578483828151811061039157610390610e56565b5b60200260200101818152505060026000868152602001908152602001600020548282815181106103c4576103c3610e56565b5b60200260200101818152505084806103db90610e85565b95505080806103e990610eaf565b915050610375565b50818195509550505050509250929050565b61040b6107cc565b73ffffffffffffffffffffffffffffffffffffffff16610429610559565b73ffffffffffffffffffffffffffffffffffffffff161461047f576040517f08c379a000000000000000000000000000000000000000000000000000000000815260040161047690610ccc565b60405180910390fd5b6104896000610875565b565b6104936107cc565b73ffffffffffffffffffffffffffffffffffffffff166104b1610559565b73ffffffffffffffffffffffffffffffffffffffff1614610507576040517f08c379a00000000000000000000000000000000000000000000000000000000081526004016104fe90610ccc565b60405180910390fd5b61050f610234565b1561054f576040517f08c379a000000000000000000000000000000000000000000000000000000000815260040161054690610f44565b60405180910390fd5b610557610939565b565b60008060009054906101000a900473ffffffffffffffffffffffffffffffffffffffff16905090565b600061058e60016109dc565b905090565b61059b6107cc565b73ffffffffffffffffffffffffffffffffffffffff166105b9610559565b73ffffffffffffffffffffffffffffffffffffffff161461060f576040517f08c379a000000000000000000000000000000000000000000000000000000000815260040161060690610ccc565b60405180910390fd5b610617610234565b15610657576040517f08c379a000000000000000000000000000000000000000000000000000000000815260040161064e90610f44565b60405180910390fd5b600061066360016109dc565b9050600042905080600260008481526020019081526020016000208190555080827fb0030169f5eefb90e982b118b3555dce42f9b5c8c2a6d40c9b59a1f013a07c2a60405160405180910390a36106ba60016107b6565b5050565b6106c66107cc565b73ffffffffffffffffffffffffffffffffffffffff166106e4610559565b73ffffffffffffffffffffffffffffffffffffffff161461073a576040517f08c379a000000000000000000000000000000000000000000000000000000000815260040161073190610ccc565b60405180910390fd5b600073ffffffffffffffffffffffffffffffffffffffff168173ffffffffffffffffffffffffffffffffffffffff1614156107aa576040517f08c379a00000000000000000000000000000000000000000000000000000000081526004016107a190610fd6565b60405180910390fd5b6107b381610875565b50565b6001816000016000828254019250508190555050565b600033905090565b6107dc610234565b61081b576040517f08c379a000000000000000000000000000000000000000000000000000000000815260040161081290610d38565b60405180910390fd5b60008060146101000a81548160ff0219169083151502179055507f5db9ee0a495bf2e6ff9c91a7834c1ba4fdd244a5e8aa4e537bd38aeae4b073aa61085e6107cc565b60405161086b9190610bd1565b60405180910390a1565b60008060009054906101000a900473ffffffffffffffffffffffffffffffffffffffff169050816000806101000a81548173ffffffffffffffffffffffffffffffffffffffff021916908373ffffffffffffffffffffffffffffffffffffffff1602179055508173ffffffffffffffffffffffffffffffffffffffff168173ffffffffffffffffffffffffffffffffffffffff167f8be0079c531659141344cd1fd0a4f28419497f9722a3daafe3b4186f6b6457e060405160405180910390a35050565b610941610234565b15610981576040517f08c379a000000000000000000000000000000000000000000000000000000000815260040161097890610f44565b60405180910390fd5b6001600060146101000a81548160ff0219169083151502179055507f62e78cea01bee320cd4e420270b5ea74000d11b0c9f74754ebdbfc544b05a2586109c56107cc565b6040516109d29190610bd1565b60405180910390a1565b600081600001549050919050565b60008115159050919050565b6109ff816109ea565b82525050565b6000602082019050610a1a60008301846109f6565b92915050565b600080fd5b6000819050919050565b610a3881610a25565b8114610a4357600080fd5b50565b600081359050610a5581610a2f565b92915050565b60008060408385031215610a7257610a71610a20565b5b6000610a8085828601610a46565b9250506020610a9185828601610a46565b9150509250929050565b600081519050919050565b600082825260208201905092915050565b6000819050602082019050919050565b610ad081610a25565b82525050565b6000610ae28383610ac7565b60208301905092915050565b6000602082019050919050565b6000610b0682610a9b565b610b108185610aa6565b9350610b1b83610ab7565b8060005b83811015610b4c578151610b338882610ad6565b9750610b3e83610aee565b925050600181019050610b1f565b5085935050505092915050565b60006040820190508181036000830152610b738185610afb565b90508181036020830152610b878184610afb565b90509392505050565b600073ffffffffffffffffffffffffffffffffffffffff82169050919050565b6000610bbb82610b90565b9050919050565b610bcb81610bb0565b82525050565b6000602082019050610be66000830184610bc2565b92915050565b610bf581610a25565b82525050565b6000602082019050610c106000830184610bec565b92915050565b610c1f81610bb0565b8114610c2a57600080fd5b50565b600081359050610c3c81610c16565b92915050565b600060208284031215610c5857610c57610a20565b5b6000610c6684828501610c2d565b91505092915050565b600082825260208201905092915050565b7f4f776e61626c653a2063616c6c6572206973206e6f7420746865206f776e6572600082015250565b6000610cb6602083610c6f565b9150610cc182610c80565b602082019050919050565b60006020820190508181036000830152610ce581610ca9565b9050919050565b7f5061757361626c653a206e6f7420706175736564000000000000000000000000600082015250565b6000610d22601483610c6f565b9150610d2d82610cec565b602082019050919050565b60006020820190508181036000830152610d5181610d15565b9050919050565b7f4552525348000000000000000000000000000000000000000000000000000000600082015250565b6000610d8e600583610c6f565b9150610d9982610d58565b602082019050919050565b60006020820190508181036000830152610dbd81610d81565b9050919050565b7f4e487b7100000000000000000000000000000000000000000000000000000000600052601160045260246000fd5b6000610dfe82610a25565b9150610e0983610a25565b925082821015610e1c57610e1b610dc4565b5b828203905092915050565b7f4e487b7100000000000000000000000000000000000000000000000000000000600052604160045260246000fd5b7f4e487b7100000000000000000000000000000000000000000000000000000000600052603260045260246000fd5b6000610e9082610a25565b91506000821415610ea457610ea3610dc4565b5b600182039050919050565b6000610eba82610a25565b91507fffffffffffffffffffffffffffffffffffffffffffffffffffffffffffffffff821415610eed57610eec610dc4565b5b600182019050919050565b7f5061757361626c653a2070617573656400000000000000000000000000000000600082015250565b6000610f2e601083610c6f565b9150610f3982610ef8565b602082019050919050565b60006020820190508181036000830152610f5d81610f21565b9050919050565b7f4f776e61626c653a206e6577206f776e657220697320746865207a65726f206160008201527f6464726573730000000000000000000000000000000000000000000000000000602082015250565b6000610fc0602683610c6f565b9150610fcb82610f64565b604082019050919050565b60006020820190508181036000830152610fef81610fb3565b905091905056fea26469706673582212209b8a9add1165eb31596882b4d11a484cf67b0d720023123c998861bf3efda44664736f6c634300080a0033","immutableReferences":{},"source":"// SPDX-License-Identifier:MIT\r\npragma solidity >=0.4.22 <0.9.0;\r\n\r\nimport \"@openzeppelin/contracts/access/Ownable.sol\";\r\nimport \"@openzeppelin/contracts/utils/Counters.sol\";\r\nimport \"@openzeppelin/contracts/security/Pausable.sol\";\r\n\r\ncontract AutoFeed is Ownable, Pausable{\r\nusing Counters for Counters.Counter;\r\nCounters.Counter private ids;\r\n\r\nmapping(uint => uint) private history;\r\nevent History(uint indexed id, uint indexed times);\r\n\r\nconstructor(){\r\nids.increment();\r\n}\r\n\r\nfunction pause() external onlyOwner whenNotPaused{\r\n_pause();\r\n}\r\n\r\nfunction unpause() external onlyOwner whenPaused{\r\n_unpause();\r\n}\r\n\r\nfunction input() external onlyOwner whenNotPaused{\r\nuint _id = ids.current();\r\nuint _times = block.timestamp;\r\nhistory[_id] = _times;\r\nemit History(_id, _times);\r\nids.increment();\r\n}\r\n\r\nfunction currentIds() external view returns(uint){\r\nreturn ids.current();\r\n}\r\n\r\nfunction showHistory(uint from, uint to) external view returns(uint[] memory, uint[] memory){\r\nrequire(from > 0 && to > 0, \"ERRSH\");\r\nuint num = from > to ? from:to;\r\nuint length = from > to ? from - to:to - from;\r\nuint[] memory _ids = new uint[](length);\r\nuint[] memory _times = new uint[](length);\r\nfor (uint i = 0; i < length; i++){\r\n_ids[i] = num;\r\n_times[i] = history[num];\r\nnum--;\r\n}\r\nreturn (_ids, _times);\r\n}\r\n}","sourcePath":"E:\\sementara\\ryan\\contract\\AutoFeedContract\\contracts\\AutoFeed.sol","compiler":{"name":"solc","version":"0.8.10+commit.fc410830.Emscripten.clang"},"schemaVersion":"3.4.4","updatedAt":"2022-01-22T20:10:00.773Z","networkType":"ethereum","devdoc":{"kind":"dev","methods":{"owner()":{"details":"Returns the address of the current owner."},"paused()":{"details":"Returns true if the contract is paused, and false otherwise."},"renounceOwnership()":{"details":"Leaves the contract without owner. It will not be possible to call `onlyOwner` functions anymore. Can only be called by the current owner. NOTE:Renouncing ownership will leave the contract without an owner, thereby removing any functionality that is only available to the owner."},"transferOwnership(address)":{"details":"Transfers ownership of the contract to a new account (`newOwner`). Can only be called by the current owner."}},"version":1},"userdoc":{"kind":"user","methods":{},"version":1}}